:020000040800F2
:104000006044002031610008FD440008FF440008BE
:1040100003450008074500080B45000800000000A4
:104020000000000000000000000000000F45000834
:104030001145000800000000134500081545000860
:104040004B6100084B6100084B610008394A0008C9
:104050004B6100084B6100084B6100084B61000890
:104060004B6100084B6100084B6100084B61000880
:104070004B6100084B6100084B6100084B61000870
:104080004B6100084B6100084B6100084B61000860
:104090004B6100084B6100084B6100084B61000850
:1040A0004B6100084B6100084B6100084B61000840
:1040B0004B6100084F5600080D9B00084B6100083B
:1040C0004B6100084B6100084B6100084B61000820
:1040D0004B610008A56000084B610008EF5700081D
:1040E0004B6100084B6100084B6100084B61000800
:1040F0004B6100084B6100084B6100084B610008F0
:104100004B6100084B610008A5B600084B61000830
:10411000C95400084B610008D1560008055A000830
:104120004B6100084B6100084B6100084B610008BF
:1041300000F002F800F0B4F80AA090E8000C824405
:104140008344AAF10107DA4501D100F0A9F8AFF2E2
:10415000090EBAE80F0013F0010F18BFFB1A43F065
:104160000103184728BD000048BD000010F8013BBE
:104170000A4413F0030408BF10F8014B1D1108BFD7
:1041800010F8015B641E05D010F8016B641E01F885
:10419000016BF9D1002D15D010F8014B03F00C0381
:1041A0000C2BA1EB04040ABF10F8013BA4EB831411
:1041B000A4EB032405F1010314F8016B5B1E01F865
:1041C000016BF9D5914238BF10F8013BD1D370474C
:1041D0000023002400250026103A28BF78C1FBD810
:1041E000520728BF30C148BF0B6070476E2908F0E6
:1041F000DB84702908F0E98266290AF08581652947
:104200000AF0828167290AF07F816129AFF300807B
:1042100003681B0A28BF41F08001692908F05A820F
:10422000642908F05782752908F054826F2908F034
:10423000D285782908F0B582E92908F06D85E4294E
:1042400008F06A85F52908F06785EF2908F0CF8521
:10425000F82908F0B4820368DB0928BF41F0800127
:10426000632908F0DC84732908F0E184E32909F06C
:104270008080F32909F08580002070471FB509F080
:10428000D5F804000020002109F0CEFD401C60603C
:104290000020002109F0B2FDE0601FBD10B510BD87
:1042A00009F097F81146FFF7E9FF00F009F809F067
:1042B00073F903B4FFF7F2FF03BC01F099FE0000AD
:1042C00088B04FF0000A0020079083460490012038
:1042D000039040F23A207549086001F01FFE4FF448
:1042E000A06001F045FF4FF4E13001F08FFE70A0B7
:1042F00008F07EF9724800687249B0FBF1F0C4B270
:1043000071484168204688474FF4E13001F0E6FAF1
:104310006649098888B2002101F04AF941F61F4137
:1043200042F2107001F0A7F941F61F41092001F097
:1043300010FA00F0E7FF00F01FFC4FF4E13001F04D
:1043400078F803980423082207210090002001F048
:10435000C3FB01F079FC01F033FD0020009003461F
:104360000122114601904FF4FA6000F000FB57481B
:1043700007F07CFC98E056484268594653488C3018
:1043800006F092FC0A21062001F068FD029009F077
:10439000F7FE80464FF066324E4B09F041FF06466D
:1043A00000224D4B09F094FD044609F053FD0490A2
:1043B00004980AF033F804464FF03332474B09F0C3
:1043C000F3FE0DD80122032140480A3807F0C6FE4B
:1043D00023223E49C231424801F06CFD07F0CEFB7A
:1043E00040488178079881421AD03E4880780790EB
:1043F0000BF1010BBBF5615F03DB0121042007F02A
:10440000FFFB3348416831480A3890F8A9008142DF
:1044100003D90121022007F0F3FB022007F0CEFBB5
:104420003148008800F4004000283DD02E48008824
:10443000C0F30E002C4908802C480078EE281FD1CC
:1044400008460088401E2949085CEE2818D12648F5
:104450000188264807F09AFF4FF0000A09E0234838
:1044600010F80A1022A008F0C3F80AF1010000F0C9
:10447000FF0A1D4800888245F1DB10A008F0B8F85B
:1044800005A801F0C1FB78B14FF0000A09E005A8CA
:1044900010F80A1018A008F0ABF80AF1010000F0BB
:1044A000FF0ABAF1080FF2D365E7000028000020E8
:1044B0007374617274207570212121210D0A00002E
:1044C0000000002040420F00940000208A3B0020A2
:1044D0009B0F002066660A400000B0403333FB3F6C
:1044E00000480308BC0E00202C000020C023002040
:1044F000253032782000000025630000704700BF9F
:10450000FEE700BFFEE700BFFEE700BFFEE7704723
:1045100070477047704700000CB500200190009074
:104520006B48006840F480306949086000BF684803
:10453000006800F4003000900198401C0190009841
:1045400018B90198B0F5A06FF1D16148006800F486
:10455000003010B10120009001E000200090009890
:10456000012843D15B48006840F0100059490860B9
:104570000846006820F0030008600846006840F024
:104580000200086052484068514948600846406847
:1045900048600846406840F48060486008464068CB
:1045A00020F47C1048600846406840F4E8104860F9
:1045B0000846006840F08070086000BF444800680A
:1045C00000F000700028F9D04148406820F0030056
:1045D0003F4948600846406840F00200486000BF1C
:1045E0003B48406800F00C000828F9D10CBD10B51C
:1045F000FFF792FF10BD10B53548006840F001008C
:1046000033490860084640683349084030494860EB
:1046100008460068314908402D490860084600688E
:1046200020F4802008600846406820F4FE004860BE
:104630004FF41F008860FFF7DAFF29482949086016
:1046400010BD10B5002100200022214B5B6803F053
:104650000C0121B1042906D0082928D107E0224BFA
:10466000224C236027E0204B204C236023E0184B92
:104670005B6803F47010164B5B6803F4803202230E
:1046800003EB904022B91A4B4343184C23600DE0D2
:104690000F4B5B6803F4003323B1154B4343134CBA
:1046A000236003E0104B4343104C236003E00E4BA8
:1046B0000E4C236000BF00BF054B5B68C3F30313C0
:1046C0000C4CE15C094B1B68CB40084C236010BDCF
:1046D00000100240002002400000FFF8FFFFF6FE3D
:1046E0000040000808ED00E000127A000000002001
:1046F00000093D000400002008B503208DF80000EB
:1047000000208DF801008DF8020001208DF80300D3
:10471000684601F032FD08BDF0B503460C4615466B
:10472000642093FBF0F0C6B2642093FBF0F700FB2B
:104730001730C1B2132E02DD01F16400C1B2084688
:10474000CF1701EB977701EBA707BAB2072092FBCF
:10475000F0F700FB172082B25719601EDFF8DCC3A8
:104760001CF80000384482B2CF1701EB9777BF10D6
:10477000A1EB87071FB9032C01DA501E82B2072074
:1047800092FBF0F700FB1720C0B2F0BD0146CA173C
:1047900001EB92729210A1EB820292B9642091FB1C
:1047A000F0F200FB121050B94FF4C87091FBF0F218
:1047B00000FB121008B9012070470020FCE701201F
:1047C000FAE70020F8E770B500260024002502F083
:1047D000A9FB0646DA48B6FBF0F4DA480088A042A6
:1047E0003CD0D8490C8040F2B27510E02846FFF763
:1047F000CDFF40B1B4F5B77F02D3A4F5B77404E0A0
:10480000681C85B206E0A4F26D14681C85B2B4F58C
:10481000B67FEBD800BFCC488580002516E0CA499A
:104820008888FFF7B3FF30B1012D04D11D2C01D3CF
:104830001D3C09E00CE0C548405DA04203D8C348D8
:10484000405D241A00E003E0681C85B21C2CE6D20F
:1048500000BF681CBC498871601CC871B848B6FBB1
:10486000F0F100FB11644FF46160B4FBF0F0B64965
:1048700008704FF46160B4FBF0F100FB11403C2183
:10488000B0FBF1F0B04948704FF46160B4FBF0F157
:1048900000FB11403C21B0FBF1F201FB1200AA49E0
:1048A00088700B46DA7999799888FFF735FFA64921
:1048B0000872002070BD2DE9F05F06460F46904655
:1048C0009946DDE90AAB002440F2B270864203DB70
:1048D00040F63300864202DD0120BDE8F09F40F241
:1048E000B2750AE02846FFF751FF10B1984804441A
:1048F00001E098480444681C85B2B542F2DB781E9A
:10490000C7B2002510E09148405D40F2A321484322
:1049100004EBC0143046FFF739FF18B1012D01D167
:1049200087480444681C85B2BD42ECDBA8F1010055
:1049300040F2A321484304EBC014C9EB4910C0EB7B
:10494000092004EB0014CAEB0A1004EB80045C4459
:1049500001214FF0C05002F06AF8012001F091FEF1
:10496000204602F0E8FA02F019FB0020B5E72DE935
:10497000FC4705460E4617469846DDE90A9A00248C
:1049800001214FF0C05002F052F8012001F079FEF1
:10499000042001F090FC45F2500188423ED001F025
:1049A00055FC012001F0A3FF04E0601CC4B20A2002
:1049B00001F0F1FA412001F002FF08B9FA2CF4DB12
:1049C000FA2C02DB0120BDE8FC874FF4807001F077
:1049D000AAFF012001F0ADFF02F0E0FA02F0E7FAD1
:1049E0000121084602F07EFA02F0D8FA02F087FAB6
:1049F00047F6FF7002F0ACFA02F0D0FA43463A46AE
:104A000031462846CDE9009AFFF755FF02F080FABB
:104A100045F25001042001F042FC07E002F0C7FA21
:104A20000121084602F05EFA02F0B8FAFFF764FED0
:104A3000FFF7C9FE0020C6E70EB5012002F0DCFA40
:104A400008B1FFF7C0FE022002F0D6FAA0B10220A2
:104A500002F0E2FAFFF7B7FE3B4880783A4949781E
:104A6000394A1278CDE9002102903748C37982791A
:104A7000818839A007F0BCFD052002F0CDFA02F0D4
:104A80008DFA0EBD2DE9F05F06460F469046994619
:104A9000DDE90AAB002440F2B270864203DB40F647
:104AA0003300864202DD0120BDE8F09F40F2B2757E
:104AB0000AE02846FFF76AFE10B12548044401E0E9
:104AC00024480444681C85B2B542F2DB781EC7B2A4
:104AD000002510E01D48405D40F2A321484304EB4F
:104AE000C0143046FFF752FE18B1012D01D1144811
:104AF0000444681C85B2BD42ECDBA8F1010040F221
:104B0000A321484304EBC014C9EB4910C0EB0920B2
:104B100004EB0014CAEB0A1004EB80045C4401218E
:104B20004FF0C05001F083FF012001F0AAFD2046A4
:104B300002F01CFA02F032FA0020B5E70CE500089A
:104B40008051010014000020BC0E002018E5000870
:104B50000085E2018033E101416C61726D2054698E
:104B60006D653A25642D25642D25642025643A253C
:104B7000643A25640A00000010B500F0BBF810BDCF
:104B800070B50446002600F0DBF82546E11704EB7B
:104B900011610912A02202EB4101C8B200F082F9B2
:104BA00000F00FF9E11704EB11610912A4EB0121E8
:104BB000C8B200F077F900F004F900F0C1F8A120C4
:104BC00000F070F900F0FDF8002000F09FF90646B3
:104BD00000F0D6F8304670BD70B504460E4600F0C1
:104BE000AFF82546E11704EB11610912A02202EB90
:104BF0004101C8B200F056F900F0E3F8E11704EB08
:104C000011610912A4EB0121C8B200F04BF900F0C8
:104C1000D8F8304600F046F900F0D3F800F0B0F8CC
:104C20000A2001F0B8F970BD2DE9F04105460E46A5
:104C30001746002409E0E20026FA02F2D1B22A194E
:104C400090B2FFF7C9FF601CC4B2BC42F3DBBDE801
:104C5000F0812DE9F04107460C460026002509E0C9
:104C600036023919491B491E88B2FFF789FF0644ED
:104C7000681CC5B2A542F3DB3046BDE8F08110B533
:104C8000FF20FFF77DFF0446552C01D1002010BD09
:104C90005521FF20FFF7A0FFFF20FFF771FF04461B
:104CA000552C01D10020F2E70120F0E770B506464F
:104CB0000C46154608E03046721C96B2FFF760FFBE
:104CC00004F8010B681E85B2002DF4D170BD70B5DB
:104CD00005460C46164606E021782846FFF77CFF7D
:104CE000681C85B2641C301EA6F101018EB2F3D19E
:104CF00070BD000008B50121082001F08BFEC02026
:104D0000ADF8000010208DF8030003208DF802009C
:104D10006946974801F05CFBC021954801F005FC0D
:104D20000121082001F076FE4FF48070ADF80000FC
:104D300048208DF8030069468D4801F049FB08BD05
:104D400010B58B48006820F070408949086008461B
:104D5000006840F04050086001208649086086499C
:104D6000C1F89801042001F0F2F8002081490860A0
:104D7000042001F0ECF800207F49C1F8980110BD33
:104D800010B57B48006820F07040794908600846FB
:104D9000006840F04050086000207649091F086014
:104DA0007549C1F89C01042001F0D1F80120714936
:104DB000091F08607049C1F89C01042001F0C7F880
:104DC00010BD10B500246A48006820F070406849A2
:104DD00008600846006840F000400860012065490E
:104DE000086001F0B4F801206349C1F8980101F0AE
:104DF000AEF807E0601CC4B2FA2C03DDFFF7C0FF79
:104E0000012010BD5B48803800680028F2D1594964
:104E1000091F086000BFF4E710B500205549091FBD
:104E200008605348006820F0704051490860084607
:104E3000006840F04050086000204F49C1F89C01D4
:104E4000022001F084F801204A49091F086002206D
:104E500001F07DF800204849C1F8980110BD10B557
:104E600000204449091F08604148006820F0704054
:104E70003F4908600846006840F040500860012043
:104E80003D49C1F89C01022001F061F80120394937
:104E9000091F0860022001F05AF800203649C1F8C5
:104EA000980110BD70B504463148006820F070408C
:104EB0002F4908600846006840F040500860002014
:104EC0002C49091F086000251DE0E00918B10120E8
:104ED0002849086002E00020264908606006040EA8
:104EE000022001F034F801202249091F0860022045
:104EF00001F02DF800202049C1F89801022001F0AE
:104F000026F8681CC5B2082DDFDB70BD70B50546FC
:104F100000241748006820F07040154908600846D2
:104F2000006840F000400860002617E000201149AA
:104F3000091F0860022001F00AF801200E49C1F89B
:104F400098016006040E0B488038006808B1601CA8
:104F5000C4B2012000F0FBFF701CC6B2082EE5DBD6
:104F600015B9FFF77CFF01E0FFF756FF204670BD43
:104F7000000C01409C81214200802142002109E077
:104F8000002201E0531C9AB240F27E439A42F9DBC0
:104F90004B1C99B28142F3DB7047002101E04A1CAF
:104FA00091B28142FBDB704770B5044600251DE0DD
:104FB00004F0800020B10221FE4801F0B6FA03E0BF
:104FC0000221FC4801F0B3FA0821FA4801F0ADFAD9
:104FD0000220FFF7E2FF0821F64801F0A8FA0220BC
:104FE000FFF7DBFF6006040E681CC5B2082DDFDB8F
:104FF00070BD70B505460C460221EF4801F097FAE6
:105000000821ED4801F093FA2846FFF7CDFF08216B
:10501000E94801F08AFA0221E74801F088FA0821FC
:10502000E54801F084FA2046FFF7BEFF0821E24878
:1050300001F07BFA70BD10B504460221DE4801F094
:1050400076FA0821DC4801F072FA2046FFF7ACFF3F
:105050000821D94801F069FA10BD10B504460221B3
:10506000D54801F062FA0821D34801F060FA2046E1
:10507000FFF79AFF0821D04801F057FA10BD10B58C
:105080000821CD4801F053FA0421CB4801F04DFA34
:105090000A20FFF773FF0421C74801F048FA642093
:1050A000FFF76CFF0421C44801F03FFA3220FFF7FC
:1050B00065FF10BD2DE9F04781460D4616461F4697
:1050C000B0241EE02046FFF7B6FF00211020FFF7B6
:1050D00090FF4FF000080FE04846FFF7BEFF28465C
:1050E000FFF7BBFF3046FFF7B8FF3846FFF7B5FFC5
:1050F00008F1010000F0FF08B8F1210FECDB601CA3
:10510000C4B2B82CDEDBBDE8F0872DE9F0470646D7
:10511000884691461F46DDF820A0AAF12000C5B2BE
:10512000182F44D13046FFF786FF49464046FFF727
:1051300060FF00240AE005EBC501A04A02EB8103F1
:105140002146621CD4B2585CFFF787FF0C2CF2DBBF
:10515000711CC8B2FFF76FFF49464046FFF749FF91
:105160000C240AE005EBC501944A02EB81032146B9
:10517000621CD4B2585CFFF770FF182CF2DBB11C34
:10518000C8B2FFF758FF49464046FFF732FF1824E0
:105190000AE005EBC501894A02EB81032146621C46
:1051A000D4B2585CFFF759FF242CF2DB5AE0102FE1
:1051B00029D13046FFF73FFF49464046FFF719FF28
:1051C000002408E07E4901EB05132146621CD4B29D
:1051D000585CFFF742FF082CF4DB711CC8B2FFF7E4
:1051E0002AFF49464046FFF704FF082408E07449B7
:1051F00001EB05132146621CD4B2585CFFF72DFF6A
:10520000102CF4DB2EE00C2F2CD13046FFF713FFCF
:1052100049464046FFF7EDFE00240AE005EB450154
:10522000684A02EB81032146621CD4B2585CFFF746
:1052300014FF062CF2DB711CC8B2FFF7FCFE4946D6
:105240004046FFF7D6FE06240AE005EB45015D4A1D
:1052500002EB81032146621CD4B2585CFFF7FDFECD
:105260000C2CF2DBBDE8F0872DE9F84307460D462C
:1052700014461E46DDF820803CE030784346224646
:10528000294600903846FFF740FFB8F1100F0FD1C4
:1052900004F10800C4B20F2C04DDA4F10F00C4B265
:1052A000681CC5B2182D24DD1025781CC7B220E07B
:1052B000B8F1180F0FD104F10C00C4B20F2C04DDAB
:1052C000A4F10F00C4B2681CC5B2182D11DD102561
:1052D000781CC7B20DE0A01DC4B20F2C04DDA4F1F0
:1052E0000F00C4B2681CC5B2182D02DD1025781C51
:1052F000C7B2761C3078202802DB30787E28BCDDEF
:10530000BDE8F88308B50121102001F083FB42F2CB
:105310000A00ADF8000010208DF8030003208DF87E
:1053200002006946234801F053F842F20A0121487D
:1053300001F0FBF80121802001F06CFB0E20ADF89C
:10534000000010208DF8030003208DF8020069464C
:10535000194801F03DF80E21174801F0E6F8FFF773
:105360008EFE1420FFF70AFEA020FFF764FE142033
:10537000FFF704FEC820FFF75EFE1420FFF7FEFDD6
:10538000A320FFF758FE2720FFF755FE17218120A5
:10539000FFF72FFE1420FFF7F1FD2C20FFF74BFE47
:1053A0001420FFF7EBFD2E20FFF745FE1420FFF73A
:1053B000E5FD09E000100140001C014088EF0008F5
:1053C00098E9000824E500082F20FFF734FE142098
:1053D000FFF7D4FD6020FFF72EFE00211020FFF71D
:1053E00008FEB020FFF727FEAF20FFF724FE0023C2
:1053F0001A4619461846FFF75DFE08BD10B504466B
:1054000000BF4021644801F013FD0028F9D0624834
:10541000001D048010BD70B504460D46002605E051
:105420003146721CD6B2605CFFF7E8FFAE42F7DB94
:1054300070BD10B586B004460121C80401F0F7FA2A
:105440004FF48060ADF8140003208DF8160018208A
:105450008DF8170005A9514800F0BAFF4FF400601D
:10546000ADF8140004208DF8170005A94B4800F092
:10547000AFFF34208DF8000003208DF801008DF877
:10548000020001208DF80300684600F076FE0194CA
:105490000020ADF80800ADF80A00ADF80C00ADF83A
:1054A00010000C20ADF80E0001A93B4801F059FB9B
:1054B000012240F22551384801F0EBFB012136482A
:1054C00001F0DBFB06B010BD10B540F225513248AB
:1054D00001F0C4FC002837D02F4801F03FFCC1B2D6
:1054E0002F4802780078401C2D4B18702D488154AD
:1054F00000785A2802D00020194608702848007801
:10550000022806D1274840785A2802D00020244992
:10551000087023480078042812DD2248C078401D16
:105520001F49097888420BD11D4802781D491E4841
:1055300007F039FA01201D49088000201849087039
:105540002021154801F081FC10BD2DE9F0410746EE
:105550000026002400251448C078401DC4B22A2C1F
:1055600002DD0020BDE8F081002505E00E48405D29
:105570003044C6B2681CC5B2601EA842F6DC0A49B7
:10558000085CB04205D12246384607F00CFA0120EB
:10559000E8E70020E6E70000004C00400010014072
:1055A000190000208E0F0020C60E002016000020DB
:1055B00030B585B005460C460121022001F037FACE
:1055C0000121202001F026FA0420ADF810008DF80A
:1055D000130004A9734800F0FBFE0421714800F099
:1055E000A6FFADF80850ADF804400020ADF80A0061
:1055F000ADF8060001A96C4801F0ECFD1D208DF806
:10560000000002208DF8010000208DF8020001202A
:105610008DF80300684600F0B0FD7021624802F08A
:1056200078F900234FF4004219465F4802F0C5F9AB
:1056300000215D4802F0BEFB012211465A4802F0EB
:1056400040F90121584802F021F905B030BD10B5EC
:105650000121554802F0E3FB60B10121524802F0FC
:10566000EFFB52480068401C50490860084600683B
:105670004F49086010BD7FB505460C46012110203A
:1056800001F0D5F9ADF80850ADF804400020ADF8B0
:105690000A00ADF8060001A9464801F09BFD012271
:1056A0001146444802F00DF936208DF80000002024
:1056B0008DF8010003208DF8020001208DF8030011
:1056C000684600F05AFD01213A4802F0DFF87FBD3C
:1056D00010B50121374802F0A2FBC8B301213548BB
:1056E00002F0AEFB304802F088FB334908800846E0
:1056F00000883249098888422AD02F4800882F49DB
:105700000988884207DB2C4800882C490988401A00
:105710002B49086009E02B48006828490988401A8D
:1057200025490988084426490860234800882349F8
:105730000880234800684FF46161484321490968A3
:10574000B0FBF1F01E49086008460068184948603F
:1057500010BD7FB505460C460121082001F067F910
:105760000020ADF80A00ADF80600ADF80850ADF81D
:10577000044001A9144801F02DFD012211461248F0
:1057800002F09FF832208DF8000001208DF8030010
:1057900000208DF8010003208DF80200684600F01B
:1057A000ECFC7FBD00140140000400401C00002000
:1057B0009B0F00200010004022000020200000204D
:1057C0002400002028000020000C004010B50446F2
:1057D00044B10021B94802F0EDFA0121B74802F0C6
:1057E00055F803E00021B54802F050F810BD10B59F
:1057F00040F22551B24801F031FB08B3B04801F046
:10580000ADFAC4B2AF480088B0F5A05F12DA00214B
:10581000AA4802F0CFFAAB48008810B90120FFF780
:10582000D5FFA84801880088401CA64A1080A648D9
:10583000445405E0A348008840F40040A149088092
:1058400010BD7FB505460C460121202001F0EFF880
:10585000ADF80450ADF800400020ADF80600ADF8FA
:1058600002006946954801F0B5FC012211469348B3
:1058700002F027F837208DF80C0001208DF80D007C
:1058800002208DF80E0001208DF80F0003A800F013
:1058900074FC7FBD70B58CB006460C4615460121E0
:1058A000084601F0AAF8304602F0CEFA01940295BB
:1058B0001020039000200490059080200690002086
:1058C0000790089009904FF480500A9000200B90A8
:1058D00001A9304602F05AFB0CB070BD10B586B07D
:1058E00004460121082001F095F80121880401F007
:1058F0009EF8734801F0F2F84FF48060ADF81000A4
:1059000003208DF8120018208DF8130004A96F48A9
:1059100000F05EFD4FF40060ADF8100004208DF83B
:10592000130004A9694800F053FD00940020ADF86D
:105930000400ADF80600ADF80800ADF80C000C202E
:10594000ADF80A0069465E4801F00BF9012280219A
:105950005B4801F0C3F95E4A5949091D5D48FFF7EC
:1059600099FF0121564801F088F9012240F22551A2
:10597000534801F08EF927208DF8140002208DF88D
:10598000150003208DF8160001208DF8170005A8DA
:1059900000F0F3FB41F61F416320FFF752FF0020A8
:1059A00048490880FFF712FF06B010BD70B50446E5
:1059B0000D460021204602F014FB2946204602F045
:1059C00025FB0121204602F00CFB70BD0FB438B559
:1059D00005A800903E48009A049906F0F7FD0020C3
:1059E000009000BF3B48001D00680028FAD13848ED
:1059F00006F0BAFF84B221463648FFF7D7FF38BC1D
:105A00005DF814FB10B501212C4802F008FA60B1D2
:105A100001212A4802F014FA2A48008840F4004084
:105A2000284908800020FFF7D1FE10BD10B50446BC
:105A30000021224802F0BEF920482C3000880020C6
:105A40001E492C310880084600882043088010BD7C
:105A500070B504460D462946204601F07BF900BF8B
:105A60008021204601F0E4F90028F9D070BD2DE92D
:105A7000F04107460D461646002400BF295D384612
:105A8000FFF7E6FF641CB442F8D3BDE8F08170B5BF
:105A900006460C46002500BF615D3046FFF7D8FF83
:105AA0006D1C605D0028F7D170BD0246002002E049
:105AB00000231354401C8842FAD37047001400405E
:105AC000004800402C000020C0230020000C0140B2
:105AD000C00F0020800002402DE9F04188B004464C
:105AE0000D4616461F46DDF838800121042000F0DF
:105AF00091FF0121480600F09AFF4FF48050ADF865
:105B00001C0003208DF81E0018208DF81F0007A927
:105B10004B4800F05DFC4FF40060ADF81C004820DD
:105B20008DF81F0007A9464800F052FC00208DF8B0
:105B300016008DF817008DF8180001208DF8190057
:105B400000208DF81A008DF81B008DF812808DF85A
:105B500013408DF814608DF81550ADF8107004A93D
:105B6000384802F0B4FA00208DF80A008DF80B00D6
:105B700001208DF80C000020ADF80000ADF8020007
:105B8000ADF80400ADF80600ADF8080001208DF86E
:105B90000D00684602F025FB002008B0BDE8F0814A
:105BA000F0B585B007460D46002412200090019004
:105BB00000208DF808008DF809008DF80A5000BF0C
:105BC00005E0395D0DF10B000155601C84B2AC425B
:105BD000F7DB69461B4802F0F3FB0646002401E0B0
:105BE000601C84B23146174802F082FC18B940F6B6
:105BF000FF708442F4DB40F6FF70844202DB012038
:105C000005B0F0BD0020FBE730B585B005460021AA
:105C10000C4802F04DFD10B9002005B030BD6A46B9
:105C20000021084802F0C1FC002404E00DF10B0043
:105C3000005D2855641C082CF8D39DF80A00ECE799
:105C4000000801400064004008B50121602000F018
:105C5000E1FE3C20ADF8000048208DF803006946C5
:105C6000534800F0B5FB1B20ADF8000048208DF82C
:105C7000030069464F4800F0ABFB8020ADF8000000
:105C800010208DF8030003208DF8020069464A4871
:105C900000F09EFB4FF48070ADF8000000208DF8FE
:105CA00003006946444800F093FB08BD70B510211D
:105CB000404800F020FCC50008213E4800F01BFCD5
:105CC00045EA800502213B4800F015FC45EA400505
:105CD0000121384800F00FFC0543ECB2204670BDAE
:105CE00010B5044614B101203449087033480078D7
:105CF000002841D004212E4800F0FDFB70B108219E
:105D00002B4800F0F8FB48B11021294800F0F3FBC4
:105D100020B12021264800F0EEFB68BB642000F093
:105D20003AF90020254908700421214800F0E3FBDE
:105D300008B9012010BD08211D4800F0DCFB30B976
:105D400010211B4800F0D7FB08B90520F2E710210D
:105D5000174800F0D0FB08B90320EBE708211448EE
:105D600000F0C9FB08B90220E4E72021104800F048
:105D7000C2FBD8B90420DDE704210D4800F0BBFBCD
:105D8000012813D108210A4800F0B5FB01280DD1E4
:105D90001021074800F0AFFB012807D1202104485B
:105DA00000F0A9FB012801D1044908700020C1E7D7
:105DB0000018014000140140001C01402E0000208A
:105DC00000B585B00121C80300F024FE4FF4004067
:105DD00000F084FD2D4802F059FE002000908DF85F
:105DE00004008DF805004FF460200290002003901D
:105DF00001208DF810006946244802F06EFE012152
:105E0000224802F096FE214802F0B5FE00BF1F486E
:105E100002F0B6FE0028FAD11C4802F0BBFE00BF1B
:105E20001A4802F0BCFE0028FAD105B000BD10B53A
:105E30000446072301222146144802F0E6FE012110
:105E4000124802F0B6FE00BF0221104803F022F80B
:105E50000028F9D00D4802F03FFF10BD2DE9F041B8
:105E600007460C460025002608E03846FFF7DFFF0E
:105E70000544052000F08FF8701CC6B2A642F4DB82
:105E8000B5FBF4F080B2BDE8F0810000003C0140B9
:105E900070B504460D4603F040F8342003F0D8FAFC
:105EA000204603F07FF82946204603F04BF903F023
:105EB00040F870BD2DE9F04107460C4615462846CE
:105EC00005EBD071C1F34F0503F027F8352003F03F
:105ED000BFFA384603F066F80AE014F8016B14F8CC
:105EE000011B46EA01263146384603F05EF9BF1C25
:105EF000281EA5F101018DB2EFD103F01AF8BDE81B
:105F0000F08110B503E010F8013B01F8013B131ECE
:105F1000A2F10104A2B2F6D110BD000010B56FF0DD
:105F2000040000F074F92E4800682E49B0FBF1F02F
:105F30002D4908700846007800EB4001C1EBC01005
:105F40004FF6FF7101EAC0002849088010BD0146E4
:105F5000254A12784A434FF0E0235A6100229A61A1
:105F60001A46126942F001021A6100BF4FF0E022A6
:105F7000106900F001021AB100F48032002AF5D055
:105F80004FF0E022126922F001024FF0E0231A6183
:105F900000229A6170470146144A12884A434FF022
:105FA000E0235A6100229A611A46126942F0010206
:105FB0001A6100BF4FF0E022106900F001021AB12F
:105FC00000F48032002AF5D04FF0E022126922F06E
:105FD00001024FF0E0231A6100229A61704700002D
:105FE0000000002000127A00300000203200002063
:105FF00000BF704700BF4A4A128802F04002002AE0
:10600000F9D0C2B2464B1B1D1A80704710B586B03E
:106010000446012144F2040000F0FCFC4FF400703F
:10602000ADF8140003208DF8160018208DF8170025
:1060300005A93C4800F0CCF94FF48060ADF814009D
:1060400004208DF8170005A9364800F0C1F9252075
:106050008DF8000003208DF801008DF8020001206A
:106060008DF80300684600F088F801940020ADF830
:106070000800ADF80A00ADF80C00ADF810000C20D7
:10608000ADF80E0001A9264800F06BFD012240F298
:106090002551234800F0FDFD0121214800F0EDFDD0
:1060A00006B010BD10B540F225511D4800F0D6FED7
:1060B00010B31B4800F052FEC4B21B48008800F425
:1060C0000040C8B91848008800F4804060B10A2C2C
:1060D00003D000201449088020E01348008840F4D1
:1060E00000401149088019E00D2C06D10E480088A7
:1060F00040F480400C49088010E00B480088C0F351
:106100000D000A490C5408480088401C06490880C4
:1061100008460088C72801DD0020088010BD000067
:10612000003801400008014038000020C03700203E
:106130000948804709480047FEE7FEE7FEE7FEE71B
:10614000FEE7FEE7FEE7FEE7FEE7FEE70448054957
:10615000054A064B70470000F7450008314100082A
:10616000603E00206044002060400020604000202D
:1061700031490143314A1160704770B50021002355
:106180000F22C47804B32D4C246804F4E064C4F5F1
:10619000E064210AC1F10403CA40447804FA03F11F
:1061A0008478144021430901254C0678A1550478D0
:1061B00004F01F050124AC4005786D11AD0005F118
:1061C000E025C5F8004109E0047804F01F0501242A
:1061D000AC401C4D0678761145F8264070BD1A4A31
:1061E0000A400243154B1B1F1A60704739B1134A0E
:1061F000121D12680243114B1B1D1A6006E00F4A64
:10620000121D126882430D4B1B1D1A607047042833
:1062100008D14FF0E021096941F004014FF0E0227C
:10622000116107E04FF0E021096921F004014FF00E
:10623000E0221161704700000000FA050CED00E05B
:1062400000E400E080E100E080FFFF1F10B50120C6
:1062500000F014FC002000F011FC10BD2A49086079
:1062600070472949091F0860704727498431086031
:10627000704701460020254A10884FF67F421040A3
:106280000843224A10807047014600201F4A1088A8
:106290004FF68072104008431C4A1080704708B5C2
:1062A00000220092194A2C3A0092009A024400926D
:1062B000009A116008BD08B50146002000901348FF
:1062C0002C3800900098084400900098008808BD81
:1062D0000D489C300068C0B270470C4808300088F8
:1062E00040F0010009490831088070470648A03095
:1062F0000068C0B2704705480830008840F00200CE
:10630000024908310880704704860D422C6C004019
:1063100010B50446CC48844208D10121042000F085
:1063200093FB0021042000F08FFB46E0C748844225
:1063300008D10121082000F087FB0021082000F08F
:1063400083FB3AE0C248844208D10121102000F0CA
:106350007BFB0021102000F077FB2EE0BD4884423B
:1063600008D10121202000F06FFB0021202000F047
:106370006BFB22E0B848844208D10121402000F0A4
:1063800063FB0021402000F05FFB16E0B34884422D
:1063900008D10121802000F057FB0021802000F06F
:1063A00053FB0AE0AE48844207D10121801500F07A
:1063B0004BFB0021A01500F047FB10BD10B50121DB
:1063C000084600F041FB0021012000F03DFB10BD1C
:1063D0002DE9F0410246002500260020002300247C
:1063E000002791F803C00CF00F0591F803C00CF0E2
:1063F000100CBCF1000F03D091F802C04CEA050567
:1064000091F800C0BCF1000F31D0146800202BE0DF
:106410004FF0010C0CFA00F3B1F800C00CEA0306CF
:106420009E4220D183004FF00F0C0CFA03F7BC43BF
:1064300005FA03FC4CEA040491F803C0BCF1280FF0
:1064400006D14FF0010C0CFA00FCC2F814C00AE0AF
:1064500091F803C0BCF1480F05D14FF0010C0CFAC4
:1064600000FCC2F810C0401C0828D1D31460B1F859
:1064700000C0BCF1FF0F34DD546800202EE000F1B5
:10648000080C4FF0010808FA0CF3B1F800C00CEA50
:1064900003069E4221D183004FF00F0C0CFA03F744
:1064A000BC4305FA03FC4CEA040491F803C0BCF1B8
:1064B000280F05D100F1080C08FA0CF8C2F8148076
:1064C00091F803C0BCF1480F07D100F1080C4FF060
:1064D000010808FA0CF8C2F81080401C0828CED336
:1064E0005460BDE8F0814FF6FF7101800221817098
:1064F0000421C17070470246002093680B400BB125
:10650000012000E0002070470146886880B2704793
:1065100002460020D3680B400BB1012000E00020B0
:1065200070470146C86880B2704701617047416199
:1065300070470AB1016100E041617047C160704776
:106540004FF480320A43826181618261826982698B
:10655000704702460020434B18684FF6807318407E
:1065600040EA021008433F4B186070473E49C8613B
:106570007047F0B50A46002300240021002500F0F2
:106580000046B6F1004F02D1364EF16901E0354EBA
:106590007168C0F3034583B200F44016B6F5401F9E
:1065A00008D121F070612F4E766826F070662D4F6D
:1065B0007E6012E000F48016B6F5801F06D1032637
:1065C00006FA05F4A14341F0706106E0460D36017C
:1065D00003FA06F6B14341F0706122B1460D36016F
:1065E00003FA06F6314300F00046B6F1004F02D13F
:1065F0001C4EF16101E01B4E7160F0BD30B5002210
:106600008B071C0F0F2303FA04F2164B08338C1070
:1066100053F824309343134C08348D1044F825303C
:1066200023468C1053F824308C07240F00FA04F40E
:1066300023430C4C08348D1044F8253030BD0A49F2
:10664000DC3108607047000000080140000C014088
:10665000001001400014014000180140001C0140DE
:1066600000200140000001400000204210B501213F
:10667000080700F0F6F900214FF0805000F0F1F922
:1066800010BD2A49086270472849086170470146D1
:106690000020274A106820F0E0000843106070478F
:1066A0002249A0310860704710B502460020204BF7
:1066B000186820F00300104318601E4B1B6843F05D
:1066C00004031C4C2360012901D130BF00E020BF2E
:1066D000184B1B6823F00403164C236010BD1448AC
:1066E000006840F00400124908600846006840F065
:1066F000020008600F48006840F004000D4908607F
:1067000000BF00BF30BF704701460020084A5268F2
:106710000A400AB1012000E00020704704490968DE
:1067200041EA8001024A11607047000000000E42F9
:106730000070004010ED00E0DF48006840F001000C
:10674000DD49086008464068DC490840DA4948608D
:1067500008460068DA490840D749086008460068DA
:1067600020F4802008600846406820F4FE0048605D
:106770004FF41F0088607047CF49096821F48031C9
:10678000CD4A11601146096821F480211160B0F5ED
:10679000803F03D0B0F5802F0ED106E0C6490968CE
:1067A00041F48031C44A116007E0C349096841F4EB
:1067B000A021C14A116000E000BF00BF704710B5C2
:1067C00001460022002300204A11012A02D1BA4CBE
:1067D000236806E0022A02D1B74C236A01E0B64CD6
:1067E000636A01F01F02012494401C400CB1012097
:1067F00000E0002010BD38B50020009000240025E6
:1068000000BF3120FFF7DBFF05460098401C0090D9
:106810000098B0F5A06F01D0002DF2D03120FFF725
:10682000CEFF08B1012400E00024204638BD014617
:106830000020A14A106820F0F80040EAC100106072
:106840007047A04908607047024600209A4B58687C
:1068500020F47C1042EA01031843974B58607047BC
:1068600098490866704701460020934A506820F016
:1068700003000843506070478F48406800F00C00E8
:106880007047014600208C4A506820F0F000084311
:106890005060704701460020874A506820F4E0604D
:1068A00008435060704701460020834A506820F436
:1068B000605040EAC1005060704729B17E4A527A68
:1068C00002437D4B5A7204E07B4A527A82437A4BF0
:1068D0005A7270477B49D8310860704701460020E2
:1068E000754A506820F440400843506070470021CA
:1068F000714A20321170704A82F82010012802D0AB
:1069000004280AD104E001216B4A2032117005E00D
:106910000521694A2032117000E000BF00BF7047B6
:106920006949086070476449096A0143624A116213
:106930007047654944390860704730B5002100222E
:10694000002400235C4D6D6805F00C0121B1042981
:1069500005D0082923D105E05C4D056022E05B4DA0
:1069600005601FE0544D6D6805F47012524D6D685E
:1069700005F48034022505EB92421CB9544D554371
:1069800005600BE04C4D6D6805F400351DB1504DB0
:106990005543056002E04D4D5543056002E04B4D07
:1069A000056000BF00BF444D6D6805F0F0010909A6
:1069B000484D6B5C0568DD4045603F4D6D6805F4F2
:1069C000E061090A434D6B5C4568DD4085603A4DE6
:1069D0006D6805F46051C90A3E4D6B5C4568DD4049
:1069E000C560354D6D6805F44041890B3A4D6B5CCF
:1069F000C568B5FBF3F5056130BD29B12E4A526972
:106A000002432D4B5A6104E02B4A526982432A4BC0
:106A10005A61704729B1284A92690243264B9A610C
:106A200004E0254A92698243234B9A61704729B159
:106A3000214AD2690243204BDA6104E01E4AD2693E
:106A400082431D4BDA61704729B11B4AD268024369
:106A5000194BDA6004E0184AD2688243164BDA60B8
:106A6000704729B1144A12690243134B1A6104E0BA
:106A7000114A12698243104B1A617047124940391A
:106A8000086070470F49C86470470B49C871704768
:106A90000948406A40F080700749486270470146E3
:106AA0000020054A92680A400AB1012000E0002057
:106AB0007047014988727047001002400000FFF8DB
:106AC000FFFFF6FE000042428004424200127A00BC
:106AD00000093D003A0000204A00002010B504469D
:106AE000FB48844209D101218803FFF7ADFF002153
:106AF0004FF48040FFF7A8FF32E0F648844209D106
:106B000001214804FFF7ADFF00214FF40030FFF7EB
:106B1000A8FF25E0F048844209D101218804FFF74D
:106B2000A0FF00214FF48020FFF79BFF18E0EB4807
:106B3000844209D10121C804FFF793FF00214FF4DB
:106B40000020FFF78EFF0BE0E548844208D10121C9
:106B50000805FFF786FF00214FF48010FFF781FF43
:106B600010BD2DE9F04786B005460E460024A2462A
:106B700000BFA1460027B08900B100BF2F462C8A74
:106B80004CF6FF700440F08804432C82AC894EF62A
:106B9000F3100440B08831890843718908430443E5
:106BA000AC81AC8A4FF6FF400440B0890443AC820C
:106BB00001A8FFF7C2FEC648874202D1DDF810A047
:106BC00001E0DDF80CA0A88900F4004040B10AEB18
:106BD000CA0000EB0A1031684900B0FBF1F807E089
:106BE0000AEBCA0000EB0A1031688900B0FBF1F82B
:106BF0006420B8FBF0F004012009642101FB108936
:106C0000A88900F4004040B1322000EBC900B0FB7D
:106C1000F1F000F00700044308E0322000EB091017
:106C20006421B0FBF1F000F00F0004432C8106B0AA
:106C3000BDE8F0874FF41651016000218180C180CA
:106C400001810C21418100218181704710B50246EC
:106C50000020108A4FF2FF0318400B884C88234312
:106C60008C882343CC8823431843108210BD002115
:106C7000018041808180C180704721B1828942F4C6
:106C80000052828104E082894DF6FF731A408281AE
:106C90007047F0B50346002400260025002040F68A
:106CA0006A17B94200D100BF1846C1F3421401F07F
:106CB0001F06012707FA06F5012C01D10C3004E06C
:106CC000022C01D1103000E014301AB107682F43B4
:106CD000076002E00768AF430760F0BD1AB1838A1E
:106CE0000B43838202E0838A8B4383827047028A4C
:106CF0004FF6F0731A400282028A0A4302827047FA
:106D000082894FF2FF731A40828182890A4382810D
:106D1000704721B1828942F00202828104E08289B7
:106D20004FF6FD731A4082817047028A4FF6DF7377
:106D30001A400282028A0A430282704721B1028A03
:106D400042F48042028204E0028A4BF6FF731A404A
:106D500002827047C1F3080282807047014688882A
:106D6000C0F308007047818941F0010181817047BB
:106D7000028BD2B20283028B42EA01220283704765
:106D8000028B02F47F420283028B0A430283704724
:106D900021B1828A42F02002828204E0828A4FF688
:106DA000DF731A408282704721B1828A42F010025A
:106DB000828204E0828A4FF6EF731A408282704723
:106DC00021B1828A42F00802828204E0828A4FF670
:106DD000F7731A408282704721B1828942F40042DF
:106DE000828103E08289C2F30E028281704721B161
:106DF000828A42F40062828204E0828A4FF2FF7348
:106E00001A4082827047828A4FF6FB731A40828250
:106E1000828A0A438282704721B1828A42F002024A
:106E2000828204E0828A4FF6FD731A4082827047A4
:106E300002460020B1F5007F00D100BF13880B404F
:106E40000BB1012000E00020704701F40072B2F5A0
:106E5000007F00D100BFCA430280704770B5024670
:106E6000002400230025002040F66A16B14200D11C
:106E700000BFC1F3421501F01F03012606FA03F318
:106E8000012D02D19689334006E0022D02D1168AE7
:106E9000334001E0968A33400C12012606FA04F4CE
:106EA0001688344013B10CB1012000E0002070BD01
:106EB00010B50022002340F66A14A14200D100BFA1
:106EC0000A1201249440A3B2DC43048010BD0000E8
:106ED000003801400044004000480040004C0040A1
:106EE0000050004029B1504A128802434E4B1A808C
:106EF00004E04D4A128882434B4B1A8070474A483F
:106F0000001D008840F010004749091D08807047A7
:106F10004548001D00884FF6EF7108404249091DA1
:106F200008807047002140481C300188001F0088FD
:106F300041EA0040704700B50246FFF7E0FF100C41
:106F4000394918310880091D0A80FFF7E1FF00BDAB
:106F500000B50246FFF7D3FFC2F3034032490831C0
:106F60000880091D0A80FFF7D3FF00BD00B5024667
:106F7000FFF7C5FF100C2C4920310880091D0A803D
:106F8000FFF7C6FF00BD0020274910310988090717
:106F9000080B2549143109880843704700BF22486F
:106FA000001D008800F020000028F8D070471E481F
:106FB000001D00884FF6F77108401B49091D088025
:106FC00000BF1948001D008800F008000028F8D014
:106FD000704701460020144A121D12880A400AB167
:106FE000012000E0002070470F49091D09888143F6
:106FF0000D4A121D11807047014600200A4A121DD9
:1070000012880A40D0B2084A12880A4012B108B168
:10701000012000E0002070470349091D09888143D1
:10702000014A121D118070470028004010B5044627
:10703000FE48844208D10121C014FFF705FD00215C
:10704000E014FFF701FDC4E0B4F1804F08D1012145
:107050000846FFF706FD00210120FFF702FDB8E01A
:10706000F348844208D101210220FFF7FAFC0021F5
:107070000220FFF7F6FCACE0EE48844208D1012183
:107080000420FFF7EEFC00210420FFF7EAFCA0E05B
:10709000E948844208D101210820FFF7E2FC0021E1
:1070A0000820FFF7DEFC94E0E448844208D1012187
:1070B0001020FFF7D6FC00211020FFF7D2FC88E05B
:1070C000DF48844208D101212020FFF7CAFC0021BB
:1070D0002020FFF7C6FC7CE0DA48844208D1012179
:1070E0004014FFF7B1FC00216014FFF7ADFC70E025
:1070F000D548844209D10121C804FFF7A5FC00212D
:107100004FF40020FFF7A0FC63E0D048844209D18F
:1071100001210805FFF798FC00214FF48010FFF7CC
:1071200093FC56E0CA48844209D101214805FFF783
:107130008BFC00214FF40010FFF786FC49E0C548A6
:10714000844208D101214020FFF78BFC0021402020
:10715000FFF787FC3DE0C048844208D10121802030
:10716000FFF77FFC00218020FFF77BFC31E0BB486C
:10717000844208D101218015FFF773FC0021A0157E
:10718000FFF76FFC25E0B648844209D101210804CD
:10719000FFF75AFC00214FF48030FFF755FC18E050
:1071A000B048844209D101214804FFF74DFC002179
:1071B0004FF40030FFF748FC0BE0AB48844208D1A5
:1071C00001218804FFF740FC00214FF48020FFF7E5
:1071D0003BFC10BD00220288944B98420ED0994B84
:1071E00098420BD0B0F1804F08D0914B984205D017
:1071F000904B984202D0904B984204D14FF68F7337
:107200001A404B881A438D4B984207D08C4B9842BA
:1072100004D04FF6FF431A40CB881A4302808B8874
:1072200083850B880385814B98420BD0854B984210
:1072300008D08B4B984205D08A4B984202D08A4B9B
:10724000984201D10B7A038601238382704770B57F
:10725000002400220023058C4FF6FE76354005847D
:10726000028C8388048B4FF68F752C40B51E2C4002
:107270000D882C43751E2A400D892A434D882A43C8
:107280006A4DA8420BD06F4DA84208D0744DA84259
:1072900005D0744DA84202D0734DA84213D14FF6C9
:1072A000F7752A404D892A434FF6FB752A408D8891
:1072B0002A434FF6FF652B404FF6FF552B408D8933
:1072C0002B43CD892B4383800483CD88858602841C
:1072D00070BD70B5002400220023058C4FF6EF76B8
:1072E00035400584028C8388048B48F6FF752C405A
:1072F0004FF6FF452C400D884FF6FF7606EA052530
:107300002C434FF6DF752A400D8906EA05152A43FE
:107310004D8806EA05152A43444DA84202D0494D3E
:10732000A8421DD14FF67F752A404D894FF6FF7652
:1073300006EA05152A434FF6BF752A408D8806EAEE
:1073400005152A434FF6FF352B404FF2FF752B40B2
:107350008D8906EA85052B43CD8906EA85052B43F1
:1073600083800483CD880587028470BD70B50024B6
:1073700000220023058C4FF6FF6635400584028C01
:107380008388848B4FF68F752C404FF6FC752C400C
:107390000D882C434FF6FF552A400D894FF6FF7696
:1073A00006EA05252A434D8806EA05252A431F4D8E
:1073B000A84202D0234DA8421DD14FF2FF752A40AA
:1073C0004D894FF6FF7606EA05252A434FF6FF352D
:1073D0002A408D8806EA05252A434EF6FF752B4084
:1073E0004DF6FF752B408D8906EA05152B43CD8997
:1073F00006EA05152B4383808483CD888587028424
:1074000070BD70B5002200230024058C4EF6FF7677
:1074100035400584038C8488828B48F6FF752A40AA
:107420004FF6FF452A400D8820E00000002C014067
:107430000004004000080040000C00400010004024
:107440000014004000340140004C01400050014055
:107450000054014000180040001C00400020004083
:107460000040014000440140004801404FF6FF76D3
:1074700006EA05252A434DF6FF752B400D8906EADD
:1074800005352B434D8806EA05352B43FA4DA842B6
:1074900002D0FA4DA84208D14BF6FF752C408D89D9
:1074A0004FF6FF7606EA85152C4384808283CD88CB
:1074B000A0F84050038470BD828B4FF2FF331A4016
:1074C0008283828B4FF6FF7303EA01231A43828380
:1074D0007047F0B50C461546002200210026078CA7
:1074E0004EF6FF7C07EA0C070784828B018C4FF66F
:1074F000FF7707EA043640F6FF473A404FF6FF773A
:1075000007EA05273A434FF6FF7707EA03373A437E
:10751000D94FB8420ED0D94FB8420BD0B0F1804FFE
:1075200008D0D74FB84205D0D64FB84202D0D64F78
:10753000B84206D14DF6FF77394046F480573943BB
:1075400005E047F6FF57394044F4805739438283BA
:107550000184F0BD828B4FF6F3731A408283828BD5
:107560000A4382837047F0B50C461546002200217D
:107570000026078C4FF6FF6C07EA0C070784828B06
:10758000018C4FF6FF7707EA04264FF60C773A4056
:107590004FF6FF7707EA03172F433A43B64FB84237
:1075A0000ED0B64FB8420BD0B0F1804F08D0B44FD8
:1075B000B84205D0B34FB84202D0B34FB84206D15B
:1075C0004FF6FF57394046F48077394305E04FF2D4
:1075D000FF57394044F48077394382830184F0BDFA
:1075E000028B4FF2FF331A400283028B4FF6FF7378
:1075F00003EA01231A4302837047F0B50C4615468F
:10760000002200210026078C4FF6EF7C07EA0C07CA
:107610000784028B018C4FF6FF7707EA041640F6C9
:10762000FF473A404FF6FF7707EA03373A434FF6F2
:10763000FF7707EA05273A438F4FB8420ED08F4FA6
:10764000B8420BD0B0F1804F08D08D4FB84205D072
:107650008C4FB84202D08C4FB84206D14FF6DF773C
:10766000394046F01007394305E04FF65F7739405F
:1076700044F01007394302830184F0BD028B4FF6BA
:10768000F3731A400283028B0A4302837047F0B5FA
:107690000C46154600220021068C4FF6FE773E4030
:1076A0000684028B018C4FF60C7632407E1C06EA73
:1076B00003162E433243704EB0420ED06F4EB0428E
:1076C0000BD0B0F1804F08D06D4EB04205D06D4E5A
:1076D000B04202D06C4EB04206D14FF6FD7631403A
:1076E00044F00106314305E04FF6F576314044F0B1
:1076F0000106314302830184F0BD70B505460C4696
:107700005D4885420ED05D4885420BD0B5F1804F73
:1077100008D05B48854205D05A48854202D05A4875
:10772000854200D100E000BF208850B92389A2889B
:1077300061882846FFF7ABFFE1882846FFF79EFFE8
:1077400025E0208804280AD12389A2886188284658
:10775000FFF753FFE1882846FFF742FF17E0208834
:1077600008280AD12389A28861882846FFF7FBFEF2
:10777000E1882846FFF7EEFE09E02389A2886188A8
:107780002846FFF7A6FEE1882846FFF795FE70BD64
:107790002DE9F04105460C4600260127608808B90E
:1077A000022600E00026A088012801D1022700E07F
:1077B00001272088A0B92389A28861882846FFF77D
:1077C00066FFE1882846FFF759FF23893A4631468C
:1077D0002846FFF712FFE1882846FFF701FF13E074
:1077E0002389A28861882846FFF707FFE188284699
:1077F000FFF7F6FE23893A4631462846FFF747FF52
:10780000E1882846FFF73AFFBDE8F0810A884B88F7
:107810001A438B881A43CB881A430B891A434B8926
:107820001A438B891A43A0F8442070474FF6FF7122
:10783000818000210180C180418001727047002158
:10784000018041808180C180018141818181C1812C
:107850007047002101804180012181800021C18089
:10786000018170470021018041808180C1800181B8
:107870004181818170470000002C014000340140AB
:107880000004004000080040000C004021B10288C4
:1078900042F00102028004E002884FF6FE731A40B3
:1078A0000280704731B1B0F8442042F40042A0F8A1
:1078B000442005E0B0F84420C2F30E02A0F84420B2
:1078C00070471AB183890B43838102E083898B431C
:1078D000838170478182704741EA0203A0F84830F3
:1078E00070471AB183890B43838102E083898B43FC
:1078F0008381704701894FF6F8721140018170470A
:107900000A46002101894FF68F7319401143018106
:10791000704730B504460D4629462046FFF7F0FF74
:10792000208940F00700208130BD2DE9F041044658
:107930000D4616461F46602D06D13B4601223146B4
:107940002046FFF75AFE05E03B460122314620461D
:10795000FFF79DFE29462046FFF7D2FF208940F021
:1079600007002081BDE8F08130B50C460021018977
:10797000C9B24FF6FF7505EA032515432543294390
:10798000018130BD2DE9F04105460E461746984667
:10799000002443463A4631462846FFF7E5FF2C8946
:1079A0004FF6F870044044F007044FF68F7004401F
:1079B00044F070042C81BDE8F081F0B504460D461A
:1079C00016461F463B46324629462046FFF7CCFF67
:1079D000208940F480402081F0BD0185828270477B
:1079E0000A46002101884FF68F7319401143018028
:1079F0007047F0B50C4615461E46002100220023B4
:107A00000189028B038C4FF6F877394021434FF6FA
:107A1000FC473A4040F201173A434FF6DD773B40CE
:107A20004FF6FF7707EA06172F433B430181028396
:107A30000384F0BD0A460021018B4FF68F73194075
:107A40001143018370470A460021018B48F6FF73FA
:107A500019404FF6FF7303EA02231943018370476D
:107A60000A460021818B4FF68F73194011438183A1
:107A700070470A460021818B48F6FF7319404FF684
:107A8000FF7303EA022319438183704721B10288FF
:107A900042F08002028004E002884FF67F731A40B1
:107AA0000280704721B1828842F00402828004E0A3
:107AB00082884FF6FB731A408280704721B182881A
:107AC00042F00802828004E082884FF6F7731A4081
:107AD0008280704721B1828842F00102828004E0F6
:107AE00082884FF6FE731A40828070470A46002152
:107AF000018B4FF6F77319401143018370470A4613
:107B00000021018B4FF2FF7319404FF6FF7303EA18
:107B100002231943018370470A460021818B4FF6E7
:107B2000F77319401143818370470A460021818B06
:107B30004FF2FF7319404FF6FF7303EA0223194314
:107B4000818370470A460021018B4FF6FB73194071
:107B50001143018370470A460021018B4FF6FF3322
:107B600019404FF6FF7303EA02231943018370475C
:107B70000A460021818B4FF6FB7319401143818324
:107B800070470A460021818B4FF6FF3319404FF6AC
:107B9000FF7303EA02231943818370470A460021D9
:107BA000018B4FF67F7319401143018370470A46DA
:107BB0000021018BC1F30E014FF6FF7303EA02238C
:107BC0001943018370470A460021818B4FF67F736A
:107BD00019401143818370470A460021818BC1F30C
:107BE0000E014FF6FF7303EA0223194381837047A6
:107BF0000A460021018C4FF6FD73194011430184A0
:107C000070470A460021018C4FF6F7731940114363
:107C1000018470470A460021018C4FF6DF7319403A
:107C20004FF6FF7303EA02131943018470470A46B3
:107C30000021018C4FF67F7319404FF6FF7303EA62
:107C400002131943018470470A460021018C4FF644
:107C5000FF5319404FF6FF7303EA022319430184CF
:107C600070470A460021018C4FF2FF7319404FF60E
:107C7000FF7303EA02231943018470470A46002177
:107C8000018C4DF6FF7319404FF6FF7303EA023380
:107C900019430184704730B5002301248C40A3B2FE
:107CA000048C9C430484048C02FA01F5ADB22C438D
:107CB000048430BD30B5002304248C40A3B2048C6E
:107CC0009C430484048C02FA01F5ADB22C43048475
:107CD00030BD70B503460020002418461830012539
:107CE0008D40ACB21D8CA5431D8409B1082909D172
:107CF00000EB6100056825F0700505600568154317
:107D000005600EE00D1FC5F34E052844056825F4F7
:107D1000E045056005684FF6FF7606EA0226354322
:107D2000056070BD21B1028842F00202028004E0C9
:107D300002884FF6FD731A400280704721B1028815
:107D400042F00402028004E002884FF6FB731A40FE
:107D50000280704721B1828842F08002828004E074
:107D600082884FF67F731A408280704702884FF6F0
:107D7000F7731A40028002880A43028070478288A3
:107D80004FF68F731A40828082880A438280704740
:107D900002894FF6F8731A40028102890A43028170
:107DA000704702894FF67F731A40028102890A43A5
:107DB0000281704781847047818570478186704752
:107DC0000187704781877047A0F84010704702888C
:107DD0004FF6FF431A40028002880A430280704730
:107DE0000146888E70470146088F70470146888F8C
:107DF00070470146B1F8400070470146888C7047D3
:107E00000146088D704702460020138A0B400BB1D3
:107E1000012000E000207047CA430282704730B55D
:107E20000246002000230024158A05EA01039589F3
:107E300005EA010413B10CB1012000E0002030BDBF
:107E4000CA4302827047000001684FF6FE7211407B
:107E500001600021016041608160C1608D498842FC
:107E600008D18C490839496841F00F01894A083A1C
:107E700051608AE087491431884208D18549083920
:107E8000496841F0F001834A083A51607DE0814938
:107E90002831884208D17F490839496841F4706126
:107EA0007C4A083A516070E07A493C31884208D1F6
:107EB00078490839496841F47041764A083A516076
:107EC00063E074495031884208D1724908394968E1
:107ED00041F470216F4A083A516056E06D496431AF
:107EE000884208D16B490839496841F47001694AF0
:107EF000083A516049E067497831884208D16549BC
:107F00000839496841F07061624A083A51603CE0C2
:107F10006149884206D1011F096841F00F01021F23
:107F2000116032E05C491431884208D15A49091F76
:107F3000096841F0F001584A121F116025E05649C6
:107F40002831884208D15449091F096841F47061F9
:107F5000514A121F116018E04F493C31884208D144
:107F60004D49091F096841F470414B4A121F1160C5
:107F70000BE049495031884207D14749091F096838
:107F800041F47021444A121F1160704710B500225D
:107F9000026847F6F0739A430C6A8B6823430C69B6
:107FA00023434C6923438C692343CC6923434C6AA4
:107FB00023438C6A23431A430260CB6843600B68F7
:107FC00083604B68C36010BD002101604160816027
:107FD000C160016141618161C1610162416281628F
:107FE000704721B1026842F00102026004E00268B9
:107FF0004FF6FE731A40026070471AB103680B43D4
:10800000036002E003688B43036070474160704780
:108010000146486880B2704701460020002201F006
:1080200080531BB11C4B083B1A6802E0194B083BFC
:108030001A6802EA01030BB1012000E0002070473A
:1080400000F0805119B11449091F086002E011497C
:1080500008394860704701460020002201F0805333
:108060001BB10D4B083B1A6802E00A4B083B1A682B
:1080700002EA01030BB1012000E00020704700F08C
:10808000805119B10449091F086002E0014908390B
:1080900048607047080002400804024010B50446DA
:1080A000FE48844209D101214806FEF7DAFC00218E
:1080B0004FF00070FEF7D5FC08E001218806FEF7BE
:1080C000D0FC00214FF08060FEF7CBFC10BD30B536
:1080D000024600200023146824F00204146014688F
:1080E00044F00104146000E05B1C546804F00104D7
:1080F0001CB94FF6FF74A342F6D1546804F0010492
:108100000CB900206CE08C79012C04D1146844F087
:108110008004146003E0146824F080041460CC79B7
:10812000012C04D1146844F04004146003E0146886
:1081300024F0400414600C7A012C04D1146844F03B
:108140002004146003E0146824F0200414604C7AC6
:10815000012C04D1146844F01004146003E0146886
:1081600024F0100414608C7A012C04D1146844F0BB
:108170000804146003E0146824F008041460CC7A46
:10818000012C04D1146844F00404146003E0146862
:1081900024F0040414608C78A407CD7844EA0564C4
:1081A0000D7944EA05444D7944EA05540D886D1E65
:1081B0002C43D461146824F001041460002300E00F
:1081C0005B1C546804F001041CB14FF6FF74A34219
:1081D000F6D1546804F001040CB1002000E0012045
:1081E00030BD10B50021837A012202FA03F1AC4AB6
:1081F000126842F00102AA4B1A60A94A1C321268A6
:108200008A43A74B1C331A60027BCAB9A44A0C32BA
:1082100012688A43A24B0C331A604288C38842EA30
:1082200003439F4A4032847A42F83430028883887C
:1082300042EA03439A4A4032847A02EBC402536012
:10824000027B012A19D1964A0C3212680A43944BD8
:108250000C331A604288038842EA0343904A403252
:10826000847A42F83430C288838842EA03438C4AD5
:108270004032847A02EBC4025360C27A3AB9884A27
:10828000121D12688A43864B1B1D1A6006E0844A41
:10829000121D12680A43824B1B1D1A60028932B9F3
:1082A0007F4A143212688A437D4B14331A60028964
:1082B000012A06D17A4A143212680A43784B1433E1
:1082C0001A60427B012A06D1754A1C3212680A43A1
:1082D000734B1C331A60724A126822F00102704B11
:1082E0001A6010BD00218171C171017241728172E9
:1082F000C1728170C170032101710221417101219C
:10830000018070476649096841F00101644A1160C3
:108310001146096843F60E729143614A1160114695
:10832000096841EA002111601146096821F0010144
:108330001160704721B1026842F48032026003E0AC
:10834000026822F4803202607047E1B1026842F0B4
:10835000800202604FF4C272125842F480734FF4EC
:10836000C27213504FF4CA72125842F480734FF421
:10837000CA7213504FF4D272125842F480734FF401
:10838000D27213501BE0026822F0800202604FF4A8
:10839000C272125822F480734FF4C27213504FF419
:1083A000CA72125822F480734FF4CA7213504FF4F9
:1083B000D272125822F480734FF4D2721350704765
:1083C00010B502460020936803F08063B3F1806F1C
:1083D00000D110E0936803F00063B3F1006F01D1A6
:1083E000012008E0936803F08053B3F1805F01D16E
:1083F000022000E00420042879D002F5C07303EBCA
:1084000000131B6803F0010402F5C07303EB0013B3
:108410001C600B7A7BB94B7A0C8843EA445302F513
:10842000C07404EB00142468234302F5C07404EB09
:108430000014236010E00B7A4C6843EAC4034C7AC2
:10844000234302F5C07404EB00142468234302F5AF
:10845000C07404EB001423608B7A03F00F038B725B
:1084600002F5C07303EB00135B6823F00F0402F501
:10847000C07303EB00135C6002F5C07303EB0013E1
:108480005B688C7A234302F5C07404EB00146360CC
:108490008B7B1C064B7B44EA034403E000640040F2
:1084A000006600400B7B44EA0323CC7A234302F5A9
:1084B000C07404EB0014A3608B7C1C064B7C44EA64
:1084C00003440B7C44EA0323CC7B234302F5C074B2
:1084D00004EB0014E36002F5C07303EB00131B68A8
:1084E00043F0010402F5C07303EB00131C6010BDE0
:1084F00010B50246002321B1012907D002290FD16E
:1085000009E09068F94C00EA04030BE09068F84C2D
:1085100000EA040306E09068F64C00EA040301E078
:10852000002300BF00BFF44C181BA34216D007DC89
:1085300083B16FF08060184470B1022818D111E047
:10854000B0F5007F10D0ED4C204448B1B0F5003FAD
:108550000ED10BE002230DE000230BE0002309E025
:10856000002307E0012305E0012303E0012301E0EC
:10857000002300BF00BFD8B210BD21B1012907D030
:1085800002290FD109E0826842F0800282600AE08D
:10859000826842F40042826005E0826842F4000290
:1085A000826000E000BF00BF704710B500F5D873CF
:1085B00003EB01131B6803F004031372137A53B91E
:1085C00000F5D87303EB01131B6840F2FF7404EA53
:1085D0005353136009E000F5D87303EB01131B68D4
:1085E0006FF0604404EAD303536000F5D87303EBE3
:1085F00001131B6803F00203537200F5D87303EBF9
:1086000001135B6803F00F03937200F5D87303EB5B
:1086100001135B681B0AD37400F5D87303EB0113D5
:108620009B68D37200F5D87303EB01139B681C0A97
:10863000147300F5D87303EB01139B681C0C54737F
:1086400000F5D87303EB01139B681B0E937300F5C1
:10865000D87303EB0113DB68D37300F5D87303EB16
:108660000113DB681C0A147400F5D87303EB0113C3
:10867000DB681C0C547400F5D87303EB0113DB6842
:108680001B0E937421B9C36843F02003C36003E059
:10869000036943F02003036110BD21B9C26842F0B1
:1086A0002002C26003E0026942F0200202617047CA
:1086B0000246002019B9D36803F0030006E001293F
:1086C00003D1136903F0030000E00020704710B5E8
:1086D00002460B4600204FF6FF71BBB9146824F028
:1086E000020444F00104146000E0491E546804F0E0
:1086F0000304012C01D00029F7D1546804F00304CD
:10870000012C01D0002032E0012030E0012B13D1F8
:10871000146824F00304146000E0491E546804F057
:1087200003040CB10029F8D1546804F003040CB11F
:1087300000201CE001201AE0022B17D1146824F05D
:10874000010444F00204146000E0491E546804F07F
:108750000304022C01D00029F7D1546804F003046B
:10876000022C01D0002002E0012000E0002010BD1A
:10877000014600200A6822F0010242F002020A606B
:108780004A6802F00302022A00D101207047014624
:108790004FF6FF7200200B6823F002030B6000E02D
:1087A000521E4B6803F00203022B01D1002AF7D1BD
:1087B0004B6803F00203022B00D0012070470146F2
:1087C00000208A6902F070007047014600208A6923
:1087D000100E7047014600208A69C2F307407047B7
:1087E0001AB143690B43436102E043698B43436120
:1087F000704710B50246002001F4700343B193693D
:10880000C1F3130423400BB101202DE000202BE025
:1088100001F0807343B15368C1F3130423400BB1DB
:10882000012021E000201FE001F0006343B19368C4
:10883000C1F3130423400BB1012015E0002013E025
:1088400001F0007343B1D368C1F3130423400BB1AB
:10885000012009E0002007E01369C1F3130423405D
:108860000BB1012000E0002010BD0022244B9942F2
:1088700002D10023836111E0C1F3130201F0007300
:108880000BB1C2600AE001F080630BB1026105E048
:1088900001F000630BB1826000E042607047024665
:1088A000002002EA01030BB1012000E00020704724
:1088B00070B504460D46002660692840002872D035
:1088C000B5F5807F69D01DDC082D42D006DC012D76
:1088D0002DD0022D31D0042D7FD134E0102D3ED08B
:1088E000202D42D0402D78D145E000000300000447
:1088F0000003000800000310000100080001FFF75A
:108900007000F030B5F5004F61D009DCB5F5007F9F
:108910004AD0B5F5806F4DD0B5F5006F5DD150E010
:10892000B5F5803F2DD0B5F5003F56D12FE0A068BA
:108930005549FFF7B4FF064651E0E0680321FFF711
:10894000AEFF06464BE0E0680821FFF7A8FF0646A9
:1089500045E0E0681021FFF7A2FF06463FE02069EE
:108960000321FFF79CFF064639E020690821FFF745
:1089700096FF064633E020691021FFF790FF064678
:108980002DE060680821FFF78AFF064627E060684F
:108990001021FFF784FF064621E0A0690121FFF7BF
:1089A0007EFF06461BE01BE0A0690221FFF777FF70
:1089B000064614E0A0690421FFF771FF06460EE0A9
:1089C0000BE0A0697021FFF76AFF064607E06068C8
:1089D0000421FFF764FF064601E0002600BF00E027
:1089E0000026304670BDB1F5007F3AD00FDC20295B
:1089F00028D006DC01291CD004291DD0082940D12B
:108A00001DE0402921D0B1F5807F3AD126E0B1F5B3
:108A1000004F31D006DCB1F5806F25D0B1F5006F85
:108A20002FD124E0B1F5803F12D0B1F5003F28D11D
:108A300011E0154A826025E00822C26022E010227F
:108A4000C2601FE0082202611CE01022026119E0EE
:108A50000822426016E01022426013E004224260C5
:108A600010E0042242600DE0042242600AE000228D
:108A700082610422426005E0002282610422426099
:108A800000E000BF00BF70470101010010B50446BF
:108A9000FA48844208D101214015FDF7D5FF002195
:108AA0006015FDF7D1FF17E0F548844208D1012198
:108AB0000015FDF7C9FF00212015FDF7C5FF0BE0EC
:108AC000F048844208D10121C803FDF7BDFF002111
:108AD0004FF40040FDF7B8FF10BD30B5024600204E
:108AE00000235068E84C20400D790C6844EA0524C6
:108AF000204350609068E54C2040D1E902542C435B
:108B00004D7944EA450420439060D06A20F4700017
:108B10000C7C641EE4B2234340EA0350D06230BDB3
:108B200000210160017141718160C1600121017406
:108B3000704721B1826842F00102826003E08268DE
:108B400022F001028260704721B1826842F4807293
:108B5000826003E0826822F480728260704710B500
:108B60000023CBB21AB144681C43446002E044685D
:108B70009C43446010BD816841F0080181607047EA
:108B8000014600208A6802F008020AB1012000E0D4
:108B900000207047816841F0040181607047014600
:108BA00000208A6802F004020AB1012000E00020DF
:108BB000704721B1826842F4A002826003E08268BB
:108BC00022F4A00282607047014600208A6802F405
:108BD00080020AB1012000E00020704710B50A466B
:108BE00000210023416821F46041531E41EA4331D2
:108BF000416010BD21B1426842F40062426003E06E
:108C0000426822F4006242607047F0B504460D46A7
:108C100000200021092D11DDE068A5F10A0606EB10
:108C20004607072606FA07F18843A5F10A0606EB70
:108C3000460603FA06F10843E0600CE0206905EB04
:108C40004507072606FA07F1884305EB450603FAB0
:108C500006F108432061072A0FDA606B561E06EB07
:108C600086071F2606FA07F18843561E06EB86067E
:108C700005FA06F10843606322E00D2A0FDA206B43
:108C8000D61F06EB86071F2606FA07F18843D61F74
:108C900006EB860605FA06F10843206310E0E06A59
:108CA000A2F10D0606EB86071F2606FA07F1884398
:108CB000A2F10D0606EB860605FA06F10843E0620E
:108CC000F0BD21B1826842F48012826003E08268C4
:108CD00022F48012826070470146C86C80B27047EF
:108CE00066484C300068704721B1426842F48062A7
:108CF000426003E0426822F480624260704721B122
:108D0000426842F48052426003E0426822F480529A
:108D1000426070470A460021816821F4E041114316
:108D20008160704721B1826842F40042826003E0B2
:108D3000826822F400428260704721B1826842F466
:108D40000212826003E0826822F40212826070479D
:108D5000014600208A6802F400120AB1012000E0F6
:108D600000207047F0B5044615460020002200267A
:108D7000092911DDE068A1F10A0707EB470C072775
:108D800007FA0CF29043A1F10A0707EB470703FA31
:108D900007F21043E0600CE0206901EB410C07276B
:108DA00007FA0CF2904301EB410703FA07F2104374
:108DB0002061A06BC0F30156EF1C06F1010CA7EB7C
:108DC0000C0707EB870C1F2707FA0CF29043EF1CE8
:108DD00006F1010CA7EB0C0707EB870701FA07F276
:108DE0001043A063F0BD10B50A4600210023816B3B
:108DF00021F44011531E41EA0351816310BD08B5AF
:108E0000002300930090009B0B440093009B1A608A
:108E100008BD08B5024600200090009201F128002C
:108E2000009B184400900098006880B208BD0A4674
:108E300000214168164B194011434160704741625F
:108E4000826270470A460021416821F01F011143E8
:108E50004160704740B109490831096841F4000197
:108E6000064A0832116007E004490831096821F414
:108E70000001024A083211607047000000240140DE
:108E800000280140003C0140FFFEF0FFFDF7F1FF2C
:108E9000FFFD3FFF0246002013680B400BB101208D
:108EA00000E000207047CA430260704770B5024678
:108EB0000020002300240B125568CEB205EA0604F8
:108EC00015681D4015B10CB1012000E0002070BDF7
:108ED00000220A12D34303607047000001460020BD
:108EE000FE4A106800F03800084310607047FB49E4
:108EF000096821F00801F94A116011460968014327
:108F000011607047F549096821F01001F34A1160BA
:108F100011460968014311607047F148EF49486004
:108F2000F04848607047EE48EC494860ED484860BA
:108F30007047EA48006940F08000E84908617047DE
:108F4000E648006940F08000E44908617047042069
:108F5000E249C96801F0010109B101200EE0DF49D1
:108F6000C96801F0040109B1022007E0DB49C968C2
:108F700001F0100109B1032000E00420704700B5A2
:108F800002460423FFF7E3FF034603E0FFF7DFFF9A
:108F90000346521E012B01D1002AF7D102B9052345
:108FA000184600BD30B5044604254FF43020FFF7C5
:108FB000E6FF0546042D17D1C848006940F00200BD
:108FC000C649086108464461006940F040000861F4
:108FD0004FF43020FFF7D3FF0546C048006941F643
:108FE000FD710840BD490861284630BD10B5042414
:108FF0004FF43020FFF7C3FF0446042C16D1B748C6
:10900000006940F00400B54908610846006940F075
:10901000400008614FF43020FFF7B1FF0446AF482D
:10902000006941F6FB710840AC490861204610BD5B
:1090300000B502460423FFF78AFF034603E0FFF76B
:1090400086FF0346521E012B01D1002AF7D102B937
:109050000523184600BD10B504244FF43020FFF757
:10906000E7FF0446042C16D19C48006940F0040038
:109070009A4908610846006940F0400008614FF4D1
:109080003020FFF7D5FF04469448006941F6FB7194
:10909000084092490861204610BD00208F49C969E7
:1090A00001F0020109B1012000E00020704730B555
:1090B000A5250424FFF7F1FF00B100254FF430206F
:1090C000FFF75DFF0446042C3AD185488349886048
:1090D000844888600846006940F02000086108461E
:1090E000006940F0400008614FF43020FFF747FF6F
:1090F0000446042C1BD17948006941F6DF71084011
:10910000764908610846006940F010000861764819
:109110000580E002FFF733FF0446052C10D06F48AE
:10912000006941F6EF7108406C49086108E0052CC0
:1091300006D06A48006941F6EF7108406749086146
:10914000204630BD78B506460C4604250020009028
:10915000E802FFF714FF0546042D24D15F4800699B
:1091600040F001005D4908613480E802FFF707FF25
:109170000546042D10D1B01C0090200C00990880E9
:10918000E802FFF7FCFE05465448006941F6FE710F
:1091900008405249086106E05048006941F6FE71F6
:1091A00008404E490861284678BD70B504460D4612
:1091B0000426F002FFF7E3FE0646042E11D14748CD
:1091C000006940F00100454908612580F002FFF781
:1091D000D6FE06464148006941F6FE7108403F4907
:1091E0000861304670BD70B505460E460424E002A5
:1091F000FFF7C5FE0446042C17D13948374988606B
:10920000384888600846006940F0100008612E80E8
:10921000E002FFF7B4FE0446052C06D02F48006993
:1092200041F6EF7108402D490861204670BD2DE9D7
:10923000F04304464FF6FF763746B046B146042564
:10924000E443E6B2C4F30727C4F307484FEA1469BE
:10925000E802FFF794FE0546042D49D120481F4936
:109260008860204888600846006940F01000086166
:10927000FF2E06D01C4808300680E802FFF77FFE6C
:109280000546042D08D1FF2F06D017480A30078065
:10929000E802FFF774FE0546042D0AD1B8F1FF0F6E
:1092A00007D011480C30A0F80080E802FFF767FEF5
:1092B0000546042D0AD1B9F1FF0F07D00A480E3038
:1092C000A0F80090E802FFF75AFE0546052D0FD0E2
:1092D0000248006941F6EF71084007E000200240B3
:1092E00023016745AB89EFCD00F8FF1F6649086190
:1092F0002846BDE8F08330B5054604244FF43020FD
:10930000FFF73DFE0446042C41D160485E49886069
:109310005F4888600846006940F020000861084600
:10932000006940F0400008614FF43020FFF727FE4D
:109330000446042C22D15448006941F6DF710840EC
:10934000514908610846006940F0100008611DB1EC
:1093500000205049088002E0A5204E4908804FF4C3
:109360003020FFF70CFE0446052C10D0464800695B
:1093700041F6EF7108404449086108E0052C06D029
:109380004148006941F6DF7108403F4908612046C5
:1093900030BDF0B505460E46174604243B483A4911
:1093A00088603B488860E002FFF7E9FD0446042C32
:1093B00019D13548006940F010003349086147F081
:1093C000F800304328433349891C0880E002FFF746
:1093D000D6FD0446052C06D02B48006941F6EF71F6
:1093E0000840294908612046F0BD2748C069800827
:1093F00070472548006A704700202349096801F03A
:10940000200109B1012000E00020704729B11E4A67
:10941000126902431C4B1A6104E01B4A1269824321
:10942000194B1A61704701460020012908D1164ADC
:10943000D26902F001020AB1012008E0002006E032
:10944000114AD2680A400AB1012000E000207047AA
:109450000D49C860704704200B49C96801F001013B
:1094600009B101200EE00849C96801F0040109B101
:10947000022007E00449C96801F0100109B1032086
:1094800000E00420704700000020024023016745EF
:10949000AB89EFCD00F8FF1F10B58CB004461E233A
:1094A0000BAA03A9204600F0ABFE0090009810B173
:1094B00001200CB010BD9DF82C00044400200B903E
:1094C0000EE040489DF82C2050F8221003A800F030
:1094D000FFFD00B908E09DF82C00401CC0B20B90C5
:1094E0009DF82C000728ECD300BF9DF82C0007281E
:1094F00063D2DFE800F004053C5E6564630000BFF2
:1095000031A003F075F831A003F072F83FA003F02A
:109510006FF84EA003F06CF85CA003F069F86BA044
:1095200003F066F879A003F063F886A003F060F812
:109530008BA003F05DF890A003F05AF894A003F01C
:1095400057F899A003F054F89EA003F051F8A4A096
:1095500003F04EF8B0A003F04BF8BDA003F048F8BC
:10956000C8A003F045F8D4A003F042F89AE216A090
:1095700003F03EF8E0A003F03BF800200B900EE073
:10958000ED4800689DF82C2000EBC2004168EBA07C
:1095900003F02EF89DF82C00401CC0B20B90E6485A
:1095A000007D9DF82C108842EADC07A003F020F82B
:1095B00078E205A003F01CF8C4E171E245E219E28B
:1095C000ECE10000500000200D0A00002D2D2D2D93
:1095D0002D2D2D2D2D2D2D2D2D2D2D2D2D2D2D2DBB
:1095E0002D2D2D2D55534D4152542056332E312DB6
:1095F0002D2D2D2D2D2D2D2D2D2D2D2D2D2D2D2D9B
:109600002D2D2D2D2D2D2D200D0A00002020202068
:1096100055534D415254CAC7D3C9414C49454E5484
:10962000454BBFAAB7A2B5C4D2BBB8F6C1E9C7C9FA
:10963000B5C4B4AEBFDAB5F7CAD4BBA5BDBBD7E9D4
:10964000BCFE2CCDA8B9FD200D0A0000CBFC2CC41B
:10965000E3BFC9D2D4CDA8B9FDB4AEBFDAD6FACA39
:10966000D6B5F7D3C3B3CCD0F2C0EFC3E6B5C4C808
:10967000CEBACEBAAFCAFD2CB2A2D6B4D0D02ED2BA
:10968000F2B4CB2CC4E3BFC90D0A0000D2D4CBE6A0
:10969000D2E2B8FCB8C4BAAFCAFDB5C4CAE4C8EBDC
:1096A000B2CECAFD28D6A7B3D6CAFDD7D628313048
:1096B0002F3136BDF8D6C629A1A2D7D6B7FBB4AE96
:1096C000A1A2BAAFCAFDC8EB0D0A0000BFDAB5D837
:1096D000D6B7B5C8D7F7CEAAB2CECAFD292CB5A544
:1096E000B8F6BAAFCAFDD7EEB6E0D6A7B3D63130DA
:1096F000B8F6CAE4C8EBB2CECAFD2CB2A2D6A7B364
:10970000D6BAAFCAFDB7B5200D0A0000BBD8D6B592
:10971000CFD4CABE2ED0C2D4F6B2CECAFDCFD4CAE0
:10972000BEBDF8D6C6C9E8D6C3B9A6C4DC2CD0C223
:10973000D4F6BDF8D6C6D7AABBBBB9A6C4DC2E0DDD
:109740000A000000BCBCCAF5D6A7B3D63A77777733
:109750002E6F70656E6564762E636F6D0D0A000066
:1097600055534D415254D3D037B8F6CFB5CDB3C3CE
:10977000FCC1EE3A0D0A00003F3A202020202020B4
:10978000BBF1C8A1B0EFD6FAD0C5CFA20D0A000038
:1097900068656C703A202020BBF1C8A1B0EFD6FA02
:1097A000D0C5CFA20D0A00006C6973743A20202046
:1097B000BFC9D3C3B5C4BAAFCAFDC1D0B1ED0D0A9C
:1097C0000A00000069643A2020202020BFC9D3C3CA
:1097D000BAAFCAFDB5C44944C1D0B1ED0D0A0A0003
:1097E0006865783A20202020B2CECAFD3136BDF817
:1097F000D6C6CFD4CABE2CBAF3B8FABFD5B8F12BAF
:10980000CAFDD7D6BCB4D6B4D0D0BDF8D6C6D7AA78
:10981000BBBB0D0A0A0000006465633A20202020CB
:10982000B2CECAFD3130BDF8D6C6CFD4CABE2CBA2E
:10983000F3B8FABFD5B8F12BCAFDD7D6BCB4D6B4AD
:10984000D0D0BDF8D6C6D7AABBBB0D0A0A0000000F
:1098500072756E74696D653A312CBFAAC6F4BAAFE1
:10986000CAFDD4CBD0D0BCC6CAB13B302CB9D8B11C
:10987000D5BAAFCAFDD4CBD0D0BCC6CAB13B0D0A55
:109880000A000000C7EBB0B4D5D5B3CCD0F2B1E03C
:10989000D0B4B8F1CABDCAE4C8EBBAAFCAFDC3FBC5
:1098A000BCB0B2CECAFDB2A2D2D4BBD8B3B5BCFC58
:1098B000BDE1CAF82E0D0A002D2D2D2D2D2D2D2D9B
:1098C0002D2D2D2D2D2D2D2D2D2D2D2D2D2D2D2DC8
:1098D0002D2D414C49454E54454B2D2D2D2D2D2DD3
:1098E0002D2D2D2D2D2D2D2D2D2D2D2D2D2D2D2DA8
:1098F0002D2D2D200D0A00002D2D2D2D2D2D2D2D42
:109900002D2D2D2D2D2D2D2D2D2D2D2D2D2D2D2D87
:109910002DBAAFCAFDC7E5B5A52D2D2D2D2D2D2DA9
:109920002D2D2D2D2D2D2D2D2D2D2D2D2D2D2D2D67
:109930002D2D2D2D200D0A009400002025730D0AD9
:1099400000000000EFA002F053FE00200B901AE090
:10995000FC4909689DF82C2001EBC20101AB02AA69
:10996000486803A900F072FCF64800689DF82C10C6
:1099700050F8312003A9F4A002F03AFE9DF82C0023
:10998000401CC0B20B90EF48007D9DF82C1088421F
:10999000DEDCAFF2CC3002F02BFE83E0AFF2D83049
:1099A00002F026FE0BAA03A9204600F02BFD9DF82D
:1099B0002C00C8B9694603A800F0BDFB0B909DF8C8
:1099C0002C0020B9E5A0009902F012FE0EE09DF8EF
:1099D0002C00042801D002206BE5E3A002F008FE71
:1099E0000120D849C87501E0022062E5DDA002F03F
:1099F000FFFD57E0DBA002F0FBFD0BAA03A9204608
:109A000000F000FD9DF82C00C8B9694603A800F0DD
:109A100092FB0B909DF82C0020B9D8A0009902F081
:109A2000E7FD0EE09DF82C00042801D0022040E55F
:109A3000D5A002F0DDFD0020C249C87501E002207A
:109A400037E5C8A002F0D4FD2CE0C6A002F0D0FD9E
:109A50000BAA03A9204600F0D5FC9DF82C00C8B93C
:109A6000694603A800F067FB0B909DF82C0078B9BD
:109A7000B449009881F8EC00084690F8EC0018B161
:109A8000C6A002F0B5FD07E0CBA002F0B1FD03E0F7
:109A900002200EE502200CE5B2A002F0A9FD01E0D3
:109AA000012006E500BF002003E510B50121C948EB
:109AB000FEF7B2F94FF6FF71C648FEF77DF90021B7
:109AC000C448FEF777F900209E49C1F8F00010BDA8
:109AD00010B50121BF48FEF796F9012808D1994831
